:107C00001F92CDB7DEB7112484B714BE81FD06C024
:107C100083FF03C08983F5D08981E4D185E0809317
:107C2000810082E08093C00088E18093C10096E0EB
:107C30009093C20090E19093C400809360008EE026
:107C400080936000219A26E080E39CEF31E09093DE
:107C500085008093840036BBB09BFECF199AA8950F
:107C60002150A9F7612C712C48E1E42E58E0D52E63
:107C700063E0F62ECC24C39475E0B72EE1E1AE2E7E
:107C80008AD1813469F487D1898393D189818238FB
:107C9000F1F0813811F485E001C083E075D17AC03C
:107CA000823411F484E103C0853419F485E08DD168
:107CB00071C0853541F46FD1682E6DD1712C782A51
:107CC000660C771C66C0863521F484E07ED180E0A6
:107CD000E5CF843609F040C05ED15DD1982E5BD1EE
:107CE000611480E7780618F000E011E004C0F301A9
:107CF000F7BEE895F9CF4FD1F80181938F019E121D
:107D0000FACF6114F0E77F0618F0F301F7BEE895AB
:107D100050D107B600FCFDCFA301A0E0B1E08C91EB
:107D200012969D0121503109F901208190E0922B9A
:107D3000FA010C01C7BEE89511244E5F5F4FA038D1
:107D4000F1E0BF0761F7F301B7BEE89507B600FCA5
:107D5000FDCFA7BEE8951EC0843761F41CD11BD1AE
:107D6000182F19D126D1F30185913F010DD1115062
:107D7000D1F710C0853739F41CD18EE105D185E9E2
:107D800003D18FE08BCF813521F4E0926000D09257
:107D900060000FD180E1F8D073CF8EBD0DB407FE27
:107DA000FDCF8EB508955F9885E0F7DF80E0F5DFC1
:107DB0005F9A81700895CF93C82F662321F060E009
:107DC00086E0F9DF5F9AEFDF8111FDCF5F988C2F9E
:107DD000CF91E3CFCF92DF92EF92FF926B017C01C4
:107DE00060E083E0E8DF8E2DD8DF8D2DD6DF8C2D8F
:107DF000D4DF80E0D2DF5F9AFF90EF90DF90CF90EA
:107E000008959F92AF92BF92CF92DF92EF92FF922E
:107E10000F931F93CF93DF9388E1809360001092BC
:107E2000600084B18C6A84B95F9A2A9A8CB58065A7
:107E30008CBD5F988FE9B1DF80E0AFDF5F9A815042
:107E40008E3F08F095C061E081E0B5DF80E0A5DFFE
:107E50005F9A60E070E0CB01BDDF863409F088C036
:107E600061E070E080E090E0B5DF8C3409F080C024
:107E700062E070E080E090E0ADDF883509F078C026
:107E800066E070E080E090E0A5DF8A3309F070C022
:107E900069E070E080E090E09DDF8A3309F068C01F
:107EA00067E070E080E090E095DF082F68E070E028
:107EB00080E090E08FDF10E0102F0027082B00FDFE
:107EC00057C0199AE12CF12CC0E0D0E0BB24B39448
:107ED00083E0A82E95E0992EC017D10768F5BE0162
:107EE000665F7F4F80E090E075DFC82ED12CBE0129
:107EF000655F7F4F80E090E06DDFD82AFE010601CC
:107F0000B7BEE89511242296CE018F779927892B49
:107F100019F0C017D10701F7F701A7BEE89507B61A
:107F200000FCFDCFF70197BEE89507B600FCFDCF3A
:107F3000F0E8EF0EF11CD0CF199881E187BFE895EA
:107F4000065F1F4F61E00130104810F482E501C068
:107F500088ED31DF80E021DF80E01FDF80E01DDF82
:107F60005F9A88E18093600088E080936000FFCF93
:107F7000DF91CF911F910F91FF90EF90DF90CF9005
:107F8000BF90AF909F9008959091C00095FFFCCF57
:107F90008093C6000895199A8091C00087FFFCCF96
:107FA0008091C00084FD01C0A8958091C600199AF7
:107FB0000895F1DF803239F088E18093600088E035
:107FC00080936000FFCF84E1DFCFCF93C82FE3DF42
:107FD000C150E9F7CF91EDCFE0E6F0E098E1908372
:107FE00080830895282EE0E6F0E088E18083108207
:067FF000EE27FF270994B3
:027FFE0000057C
:0400000300007C007D
:00000001FF
